{
  "contractName": "MultiEthSender",
  "abi": [
    {
      "constant": true,
      "inputs": [],
      "name": "owner",
      "outputs": [
        {
          "name": "",
          "type": "address"
        }
      ],
      "payable": false,
      "stateMutability": "view",
      "type": "function"
    },
    {
      "inputs": [],
      "payable": true,
      "stateMutability": "payable",
      "type": "constructor"
    },
    {
      "payable": true,
      "stateMutability": "payable",
      "type": "fallback"
    },
    {
      "anonymous": false,
      "inputs": [
        {
          "indexed": false,
          "name": "_amount",
          "type": "uint256"
        },
        {
          "indexed": true,
          "name": "receiver",
          "type": "address"
        }
      ],
      "name": "Send",
      "type": "event"
    },
    {
      "constant": false,
      "inputs": [
        {
          "name": "amount",
          "type": "uint256"
        },
        {
          "name": "list",
          "type": "address[]"
        }
      ],
      "name": "multiSendEth",
      "outputs": [
        {
          "name": "",
          "type": "bool"
        }
      ],
      "payable": false,
      "stateMutability": "nonpayable",
      "type": "function"
    },
    {
      "constant": false,
      "inputs": [],
      "name": "deposit",
      "outputs": [
        {
          "name": "",
          "type": "uint256"
        }
      ],
      "payable": true,
      "stateMutability": "payable",
      "type": "function"
    },
    {
      "constant": true,
      "inputs": [],
      "name": "getBalance",
      "outputs": [
        {
          "name": "",
          "type": "uint256"
        }
      ],
      "payable": false,
      "stateMutability": "view",
      "type": "function"
    },
    {
      "constant": true,
      "inputs": [],
      "name": "getBoolean",
      "outputs": [
        {
          "name": "",
          "type": "bool"
        }
      ],
      "payable": false,
      "stateMutability": "view",
      "type": "function"
    }
  ],
  "bytecode": "0x608060405233600160006101000a81548173ffffffffffffffffffffffffffffffffffffffff021916908373ffffffffffffffffffffffffffffffffffffffff160217905550346000803373ffffffffffffffffffffffffffffffffffffffff1673ffffffffffffffffffffffffffffffffffffffff1681526020019081526020016000208190555061055c806100976000396000f30060806040526004361061006d576000357c0100000000000000000000000000000000000000000000000000000000900463ffffffff16806312065fe01461006f5780632d1be94d1461009a5780638da5cb5b146100c95780638e3d63e314610120578063d0e30db0146101a8575b005b34801561007b57600080fd5b506100846101c6565b6040518082815260200191505060405180910390f35b3480156100a657600080fd5b506100af61020c565b604051808215151515815260200191505060405180910390f35b3480156100d557600080fd5b506100de610215565b604051808273ffffffffffffffffffffffffffffffffffffffff1673ffffffffffffffffffffffffffffffffffffffff16815260200191505060405180910390f35b34801561012c57600080fd5b5061018e600480360381019080803590602001909291908035906020019082018035906020019080806020026020016040519081016040528093929190818152602001838360200280828437820191505050505050919291929050505061023b565b604051808215151515815260200191505060405180910390f35b6101b061049e565b6040518082815260200191505060405180910390f35b60008060003373ffffffffffffffffffffffffffffffffffffffff1673ffffffffffffffffffffffffffffffffffffffff16815260200190815260200160002054905090565b60006001905090565b600160009054906101000a900473ffffffffffffffffffffffffffffffffffffffff1681565b600080600080670de0b6b3a7640000860292506000803373ffffffffffffffffffffffffffffffffffffffff1673ffffffffffffffffffffffffffffffffffffffff16815260200190815260200160002054855184021115151561032d576040517f08c379a00000000000000000000000000000000000000000000000000000000081526004018080602001828103825260228152602001807f74686520636f6e74726163742062616c616e6365206973206e6f7420656e6f7581526020017f676800000000000000000000000000000000000000000000000000000000000081525060400191505060405180910390fd5b600091505b845182101561049157848281518110151561034957fe5b9060200190602002015173ffffffffffffffffffffffffffffffffffffffff167f5ce4017cdf5be6a02f39ba5d91777cf13a304b9e024d038bca26189d148feeb9846040518082815260200191505060405180910390a26000803373ffffffffffffffffffffffffffffffffffffffff1673ffffffffffffffffffffffffffffffffffffffff1681526020019081526020016000205490508281036000803373ffffffffffffffffffffffffffffffffffffffff1673ffffffffffffffffffffffffffffffffffffffff16815260200190815260200160002081905550848281518110151561043457fe5b9060200190602002015173ffffffffffffffffffffffffffffffffffffffff166108fc849081150290604051600060405180830381858888f19350505050158015610483573d6000803e3d6000fd5b508180600101925050610332565b6001935050505092915050565b6000346000803373ffffffffffffffffffffffffffffffffffffffff1673ffffffffffffffffffffffffffffffffffffffff168152602001908152602001600020600082825401925050819055506000803373ffffffffffffffffffffffffffffffffffffffff1673ffffffffffffffffffffffffffffffffffffffff168152602001908152602001600020549050905600a165627a7a7230582053b15e6c0091d4f9d7518e9dc405637c87613770d37c894e1ea3a810705a4bd20029",
  "source": "pragma solidity ^0.4.22;\n\ncontract MultiEthSender {\n\n  uint256 constant private ethInWei = 10**18;\n  mapping(address => uint256) private balance;\n  address public owner;\n\n  event Send(uint256 _amount, address indexed receiver);\n\n  constructor() public payable {\n    owner = msg.sender;\n    balance[msg.sender] = msg.value;\n  }\n\n  function multiSendEth(uint256 amount, address[] list) public returns (bool) {\n    uint256 amountInWei = amount * ethInWei;\n    require(amountInWei * list.length <= balance[msg.sender], \"the contract balance is not enough\");\n    for (uint256 i = 0; i < list.length; i++) {\n      emit Send(amountInWei, list[i]);\n      uint256 res = balance[msg.sender];\n      balance[msg.sender] = res - amountInWei;\n      list[i].transfer(amountInWei);\n    }\n    return true;\n  }\n\n  function deposit() public payable returns (uint256) {\n    balance[msg.sender] += msg.value;\n    return balance[msg.sender];\n  }\n\n  function getBalance() public constant returns (uint256) {\n      return balance[msg.sender];\n  }\n\n  function getBoolean() public constant returns (bool) {\n      return true;\n  }\n\n  function() public payable { }\n}\n",
  "sourcePath": "/Users/six303/Desktop/MultiEthSend/contracts/MultiEthSender.sol",
  "compiler": {
    "name": "solc",
    "version": "0.4.24+commit.e67f0147.Emscripten.clang"
  },
  "schemaVersion": "2.0.1",
  "updatedAt": "2018-08-23T08:37:10.083Z"
}